:1000000023C03DC08FC13BC03AC042C138C037C0D9
:1000100036C035C034C033C032C031C030C000003B
:100020000000370000000000380002020202020255
:10003000020202020102040810202004100801023A
:10004000000004000000000011241FBECFE5D2E034
:10005000DEBFCDBF10E0A0E6B0E0ECE8F7E002C004
:1000600005900D92A636B107D9F720E0A6E6B0E0DC
:1000700001C01D92A937B207E1F7A1D185C3C0CF56
:1000800090E0FC01E25CFF4F3491FC01EC5CFF4F1F
:100090002491FC01E65DFF4FE491EE23B9F0332398
:1000A00029F0323001F198F43130C9F0F0E0EE0F70
:1000B000FF1FEC5DFF4FA591B4918FB7F894EC91C1
:1000C000611114C020952E232C938FBF08953330D7
:1000D00011F0343059F78CB58F7D8CBDE7CF8AB5E0
:1000E0008F778ABDE3CF8AB58F7DFBCF2E2BECCFE8
:1000F000CF93DF9390E0FC01EC5CFF4F2491865D91
:100100009F4FFC0184918823D1F090E0880F991FC4
:10011000FC01E25EFF4FA591B491FC01EC5DFF4F45
:10012000C591D491623071F49FB7F8943C91822FBD
:10013000809583238C93E8812E2B28839FBFDF91AA
:10014000CF9108958FB7F894EC912E2B2C938FBFFD
:10015000F6CF1F93CF93DF93182FEB0161E0C8DF39
:10016000209731F460E0812FDF91CF911F9188CFEC
:10017000CF3FD10511F461E0F6CFE12FF0E0E25C72
:10018000FF4FE491E230C1F030F4E13069F0C03863
:10019000D1058CF7E7CFE330A1F0E430C1F78CB59F
:1001A00080628CBDCBBD04C08AB580688ABDC9BDE4
:1001B000DF91CF911F9108958AB580628ABDC8BD35
:1001C000F7CF8CB580628CBDCEBDF2CF8330910568
:1001D00028F0880F991F04970197F1F708953FB70A
:1001E000F89480916B0090916C00A0916D00B0919B
:1001F0006E0022B708B601FE05C02F3F19F0019628
:10020000A11DB11D3FBFBA2FA92F982F8827BC0170
:10021000CD01620F711D811D911D43E0660F771F97
:10022000881F991F4A95D1F708958F929F92AF9298
:10023000BF92CF92DF92EF92FF92D1DF4B015C0130
:1002400084E1C82ED12CE12CF12CC9DF6819790981
:100250008A099B09683E734081059105B0F321E04E
:10026000C21AD108E108F10888EE880E83E0981ED2
:10027000A11CB11CC114D104E104F10431F7FF90B9
:10028000EF90DF90CF90BF90AF909F908F900895A8
:100290001F920F920FB60F9211242F933F938F93BB
:1002A0009F93AF93BF9380916F0090917000A09146
:1002B0007100B091720030916A0026E0230F2D3753
:1002C00058F50296A11DB11D20936A0080936F001E
:1002D00090937000A0937100B093720080916B00B6
:1002E00090916C00A0916D00B0916E000196A11DDF
:1002F000B11D80936B0090936C00A0936D00B09340
:100300006E00BF91AF919F918F913F912F910F9070
:100310000FBE0F901F90189529E8230F0396A11D7B
:10032000B11DD2CF1F920F920FB60F9211240F93CF
:100330001F932F933F934F935F936F937F938F936D
:100340009F93AF93BF932FB7F89480916F009091D4
:100350007000A0917100B09172002FBF40916600B3
:100360005091670060916800709169008C019D0157
:10037000041B150B260B370BB901A801453F514053
:100380006105710558F021E02093780080936600A4
:1003900090936700A0936800B0936900BF91AF91FC
:1003A0009F918F917F916F915F914F913F912F918D
:1003B0001F910F910F900FBE0F901F90189578947A
:1003C0008AB582608ABD8AB581608ABD83B7826042
:1003D00083BF83B7816083BF89B7826089BF80B7DD
:1003E000826080BF80B7816080BF329A319A309836
:1003F000379A8CB580648CBD61E080E079DE61E085
:1004000081E076DE61E084E073DE62E083E070DE4E
:1004100061E082E06DDE37988BB780628BBFAB9A6C
:10042000789485E9C82ED12CE12CF12C90E6492E48
:1004300099E0592E612C712C09E011E020E0222E68
:1004400020E0322E80917800882351F0809177004F
:1004500090E0019681709927809377001092780040
:1004600030917700332339F03130D1F12114310448
:1004700049F3C6DDE7CFDAD025EF30E040E050E0C9
:1004800045D1665F7F4F8F4F9F4F80E062DECDDEAC
:10049000CDD0A70196013AD16F5F7F4F8F4F9F4F0D
:1004A00081E057DEC2DEC2D0A70196012FD16F5F77
:1004B0007F4F8F4F9F4F84E04CDEB7DE61E082E0DC
:1004C000DFDDB4D0A301920121D1DC01CB01885A38
:1004D0009D4FAF4FBF4F7ADE60E082E0D1DDC6CFE7
:1004E0008FB7F89480906F0090907000A09071008A
:1004F000B09072008FBF4091730050917400609172
:10050000750070917600D501C401841B950BA60B74
:10051000B70BAC01BD014A3051056105710510F101
:100520008091600020916100222369F18F5F8093A8
:1005300060008F3F11F410926100C0916000D0E024
:10054000BE0180E006DE2A97BE0181E002DEBE0128
:1005500084E0FFDD8092730090927400A092750099
:10056000B092760061E082E08BDDC0916000D0E067
:10057000CE010A972BDE60E082E082DDC8018C1B91
:100580009D0B24DE73CF8150809360008A30A9F6E2
:1005900030936100D2CF8F929F92AF92BF92CF9251
:1005A000DF92EF92FF92CF93DF93EC016881798124
:1005B0008A819B81611571058105910521F464E2B1
:1005C00079ED8BE597E02DE133EF41E050E09ED0EF
:1005D00049015A0127EA31E440E050E07ED06B0146
:1005E0007C012CEE34EF4FEF5FEFC501B40175D005
:1005F000C60ED71EE81EF91EF7FE06C081E0C81A17
:10060000D108E10880E8F80AC882D982EA82FB8230
:10061000C701B6019F77DF91CF91FF90EF90DF90F8
:10062000CF90BF90AF909F908F9008958F929F92A0
:10063000AF92BF92CF92DF92EF92FF9260916200F1
:10064000709163008091640090916500611571055F
:100650008105910521F464E279ED8BE597E02DE1C8
:1006600033EF41E050E052D049015A0127EA31E42A
:1006700040E050E032D06B017C012CEE34EF4FEFC4
:100680005FEFC501B40129D0C60ED71EE81EF91EC2
:10069000F7FE06C081E0C81AD108E10880E8F80A30
:1006A000C0926200D0926300E0926400F092650014
:1006B000C701B6019F77FF90EF90DF90CF90BF907A
:1006C000AF909F908F900895609362007093630045
:1006D00080936400909365000895EE27FF27AA2772
:1006E000BB2708C0A20FB31FE41FF51F220F331F43
:1006F000441F551F969587957795679598F3704099
:10070000A9F7009799F7BD01CF010895052E97FB32
:1007100016F400940FD057FD05D014D007FC02D07A
:1007200046F408C050954095309521953F4F4F4F66
:100730005F4F089590958095709561957F4F8F4F8D
:100740009F4F0895A1E21A2EAA1BBB1BFD010DC0ED
:10075000AA1FBB1FEE1FFF1FA217B307E407F50771
:1007600020F0A21BB30BE40BF50B661F771F881F4D
:10077000991F1A9469F760957095809590959B01E3
:0C078000AC01BD01CF010895F894FFCF3B
:06078C000901010000005C
:00000001FF
